:100000000C94BE010C94E6010C94E6010C94FB08E0
:100010000C94CE080C94A1080C94E6010C94E60113
:100020000C94E6010C94E6010C94E6010C94E601B4
:100030000C94E6010C94E6010C94E6010C94E601A4
:100040000C945E130C94E6010C9466120C9440120E
:100050000C94E6010C94E6010C94E6010C94E60184
:100060000C94E6010C94E6015365747570205753A7
:10007000323831322E2E2E0043616C6C202D206ED2
:10008000656F706978656C202D2073657456616C9E
:100090007565730043616C6C202D20525020496EB1
:1000A00069744578697452616E646F6D50756C73D4
:1000B0006500536574757020456E640053657475F2
:1000C0007020426567696E00636C6F636B7769735C
:1000D000653A2000636F756E746572636C6F636B55
:1000E000776973653A2000526F746174656420000B
:1000F00043616C6C202D20476574456E636F6465A9
:100100007200636F6C6F72736869667420726967DE
:1001100068740043616C6C202D205250205365742C
:100120007A65204C69636874776572746500436111
:100130006C6C202D20525020496E44656B72656DA9
:10014000656E74696572650043616C6C202D205288
:10015000502050726F7A657373416264756E6B657F
:100160006C6E0043616C6C202D2052502050726FD9
:100170007A65737348656C6C0043616C6C202D204C
:1001800052502050726F7A65737341756668656C62
:100190006C656E0043616C6C202D205250205072B3
:1001A0006F7A65737344756E6B656C0043616C6C3C
:1001B000202D205250205365747A6520496E697451
:1001C00069616C2057657274650052503A2045721F
:1001D00073746572204175667275660043616C6C5C
:1001E000202D2072616E646F6D50756C7365004DCB
:1001F0006F74696F6E2069732066616C7365004D62
:100200006F74696F6E206973207472756500436145
:100210006C6C202D206D6F74696F6E47657456612C
:100220006C75650000000000230026002900000016
:100230000000240027002A000000000025002800FC
:100240002B00040404040404040402020202020257
:10025000030303030303010204081020408001028A
:100260000408102001020408102000000008000209
:10027000010000030407000000000000000000402F
:100280007A10F35A00A0724E18090010A5D4E800A5
:1002900000E87648170000E40B54020000CA9A3BBD
:1002A000000000E1F5050000809698000000404243
:1002B0000F000000A08601000000102700000000D1
:1002C000E803000000006400000000000A000000D5
:1002D00000000100000000002C76D888DC674F0881
:1002E00023DFC1DFAE59E1B1B796E5E3E453C63A87
:1002F000E651997696E8E6C28426EB898C9B62EDFE
:10030000407C6FFCEFBC9C9F40F2BAA56FA5F490B7
:10031000055A2AF75C936B6CF9676DC11BFCE0E42E
:100320000D47FEF520E6B500D0ED902E0300943584
:1003300077050080841E080000204E0A000000C8D7
:100340000C333333330F986E12831141EF8D211428
:10035000893BE65516CFFEE6DB18D1844B381BF7F8
:100360007C1D901DA4BBE424203284725E22810097
:10037000C9F124ECA1E53D27A61D8A1D11241FBE4D
:10038000CFEFD8E0DEBFCDBF12E0A0E0B1E0EEE1FC
:10039000FCE402C005900D92AC3FB107D9F726E00E
:1003A000ACEFB2E001C01D92AC35B207E1F711E04D
:1003B000CDEBD1E004C02197FE010E94221FCC3B6F
:1003C000D107C9F70E9403150C9402260C94000073
:1003D00080E090E00895FC01858596850895CF938F
:1003E000DF9300D000D000D0CDB7DEB7AB011C82C8
:1003F0001D821E82DC01ED91FC910190F081E02DC7
:1004000019821A821B829E012F5F3F4FBE016C5FD3
:100410007F4F099526960FB6F894DEBF0FBECDBF6D
:10042000DF91CF910895FC017387628781E0089581
:10043000FF920F931F93CF93DF93EC0180912503DD
:10044000FF802D81909125034E81309125033095B9
:1004500034232923932F922B8F25F92EF822809174
:1004600025038F830885198501151105E1F0D80151
:1004700013968C919F2D982381F0909125038923C9
:1004800091E009F490E090932403F8018481809333
:1004900023030190F081E02D0995D80115960D9167
:1004A0001C911697E1CF9BB38C81982349F09BB3A5
:1004B000892B8BBBE881F981808180932503BECF96
:1004C000DF91CF911F910F91FF900895EF92FF92CE
:1004D0000F931F93CF93DF93EC0180E691E0998314
:1004E0008883CE01885A9F4F0E94460F8E010E5A74
:1004F0001F4FC8010E94460F7E0184E3E80EF11CE5
:10050000E114F10449F00E151F0531F006501109F0
:10051000C8010E94460FF7CFCE014E960E94460FAB
:10052000CE0148960E94460FCE0142960E94460F89
:10053000CE010C960E94460FCE010696DF91CF9118
:100540001F910F91FF90EF900C94460F24E431E03F
:10055000FC013183208304960C94460F2EE231E097
:10056000FC013183208304960C94460F28E331E08C
:10057000FC01318320830C94AE02CF93DF93EC0116
:100580000E946602CE01DF91CF910C947421CF932B
:10059000DF93EC010E94A602CE01DF91CF910C9473
:1005A0007421CF93DF93EC010E94B602CE01DF915C
:1005B000CF910C947421CF93DF93EC010E94AE0293
:1005C000CE01DF91CF910C94742128E631E0FC013B
:1005D000318320830C942E12CF93DF93EC010E9481
:1005E000E502CE01DF91CF910C94742126E531E034
:1005F000FC01318320830C942E12CF93DF93EC0106
:100600000E94F602CE01DF91CF910C9474212CE46C
:1006100031E0FC01318320830C942E12CF93DF93C1
:10062000EC010E940703CE01DF91CF910C9474215D
:100630000F931F93CF93DF9300D0CDB7DEB78C011C
:100640008EE291E0F8019183808373836283BA0123
:10065000C801049629833A830E94DC0FF8011386AF
:100660001286298124873A81358761E0822F0F9095
:100670000F90DF91CF911F910F910C94F112DF92A7
:10068000EF92FF920F931F93CF93DF93CDB7DEB717
:1006900027970FB6F894DEBF0FBECDBF8C01D22EC8
:1006A000CE0101964F830E94DC0F4F81242F30E052
:1006B000AE014F5F5F4F64E070E0C8010E94180315
:1006C000CE0101960E94460F84E791E0D8018D93F8
:1006D0009C93F80116861786108A118A8AE097ED96
:1006E000A3E2BCE3828B938BA48BB58B7801F7E4F8
:1006F000EF0EF11CD7016C9170E08FEF90E00E943B
:10070000D41E072E000C880B990B0E94CF2420E0EA
:1007100030E040E05FE30E94291F0E94951FF8012E
:10072000668B8FE07796DF01982F1D929A95E9F7F7
:100730003F96DF01982F1D929A95E9F73F96DF01CA
:100740001D928A95E9F73F96108231961082319674
:100750001082F70110823196108211821282BD96AA
:100760001182108232961082319610823196108258
:1007700031961182108265EA71E0C80184589F4F5A
:100780000E94EE14F801EE57FF4F1082319680E37D
:10079000DF01982F1D929A95E9F7F096DF011D92DF
:1007A0008A95E9F7F09680E2DF01982F1D929A95DD
:1007B000E9F7B096DF011D928A95E9F7B09681E0DE
:1007C0008083319680833196808331969FEF90832A
:1007D00031961082319698E09083319690833196CD
:1007E000808331968083319682E3808331961082B4
:1007F000118212821382F701D08227960FB6F894E5
:10080000DEBF0FBECDBFDF91CF911F910F91FF9043
:10081000EF90DF900895409100015091010125E093
:1008200038E0429FC001439F900D529F900D1124CC
:10083000875E994C9093010180930001890F089580
:10084000EF92FF920F931F93CF93DF9300D000D0CE
:1008500000D0CDB7DEB78C017A01CE0101960E949F
:10086000DC0F9701AE014F5F5F4F61E070E0C801A0
:100870000E944E14CE0101960E94460F88E691E038
:10088000F801918380831686178626960FB6F89412
:10089000DEBF0FBECDBFDF91CF911F910F91FF90B3
:1008A000EF9008958F929F92AF92BF92CF92DF9276
:1008B000EF92FF920F931F93CF93DF93CDB7DEB7E5
:1008C0006E970FB6F894DEBF0FBECDBFFC0122813C
:1008D00033812F3F3F4F09F448C17A018C01CE018B
:1008E00049960E94DC0F0E94521328EE33E040E04C
:1008F00050E00E948F25F80135A324A320313E400B
:100900003CF4F80184A195A1CC970CF072C016C0FC
:10091000F80111A610A6F80184A195A18031FEE08E
:100920009F077CF3F80120A531A52F5F3F4F31A72A
:1009300020A780519E4095A384A3EDCFF80160A528
:1009400071A54AE0CE0101960E944B0F4801FEE1DD
:100950008F0E911CBE016F5F7F4FC4010E94BA0EC3
:10096000CE0101960E94460FF80166A177A14AE0E8
:10097000CE0101960E944B0F5801F8E1AF0EB11C59
:10098000BE016F5F7F4FC5010E94BA0ECE01019676
:100990000E94460FF80164A175A14AE0CE010196BC
:1009A0000E944B0F6801F2E1CF0ED11CBE016F5FB8
:1009B0007F4FC6010E94BA0ECE0101960E94460FDB
:1009C000F80182A193A1019749F561E472E0CE019B
:1009D00001960E94EE14B401CE0101960E94880E89
:1009E000BC01C4010E942F0FCE0101960E94460F48
:1009F00015C0F80117A216A2F80184A195A18C33A5
:100A000091050CF49BCFF80126A137A12F5F3F4F32
:100A100037A326A3CC9795A384A3EECFF801848DAA
:100A2000958D019799F461E472E0CE0101960E94E0
:100A3000EE14B501CE0101960E94880EBC01C501DD
:100A40000E942F0FCE0101960E94460FF801868961
:100A50009789019799F461E472E0CE0101960E94B2
:100A6000EE14B601CE0101960E94880EBC01C601AB
:100A70000E942F0FCE0101960E94460FB401CE01B5
:100A800001960E94DC0FCE0101960E947F0CB501F9
:100A90000E94880E0E947F0CB6010E94880EBC0145
:100AA0006801FCE0CF0ED11CC6010E942F0FCE01C1
:100AB00001960E94460FB601CE0143960E94DC0FBC
:100AC000F801828193818E159F050CF446C08481C4
:100AD0009581009721F097FD02C00397F4F1BE01C4
:100AE000675E7F4FCE010D960E94DC0F86E08E9DE3
:100AF000B0018F9D700D11246C5C7F4F600F711FD2
:100B0000CE0107960E94DC0FBE016D5E7F4FCE01C5
:100B100001960E94DC0FCE0101960E94A30C83E493
:100B200092E00E94AC0CCE0107960E94A30C83E4D5
:100B300092E00E94AC0CCE010D960E94A30C0E9484
:100B4000BE0CCE0101960E94460FCE0107960E9470
:100B5000460FCE010D960E94460FCE0143960E948D
:100B6000460FCE0149960E94460F6E960FB6F89436
:100B7000DEBF0FBECDBFDF91CF911F910F91FF90D0
:100B8000EF90DF90CF90BF90AF909F908F9008959F
:100B9000EF92FF920F931F93CF93DF9300D000D07B
:100BA00000D0CDB7DEB78C017B016EE072E0CE01E4
:100BB00001960E94A40F44E050E0BE016F5F7F4F9A
:100BC000C7010E945204CE0101960E94460FF8010F
:100BD00084850E949812892B21F4F8018685811161
:100BE00019C0F80184850E949812019721F4F80138
:100BF0008685813029F5F801878526960FB6F89409
:100C0000DEBF0FBECDBFDF91CF911F910F91FF903F
:100C1000EF900895F801168617866FEF71E0CE0108
:100C200001960E94A40F42E050E0BE016F5F7F4F2B
:100C3000C7010E945204CE0101960E94460FD1CFF7
:100C400081E0F801868787876FEE71E0CE0101961B
:100C50000E94A40F42E050E0BE016F5F7F4FC701CA
:100C60000E945204CE0101960E94460FC4CFCF923B
:100C7000DF92EF92FF920F931F93CF93DF9300D0F9
:100C800000D000D0CDB7DEB77C018B016A0167E4EC
:100C900072E0CE0101960E94EE1444E050E0BE01E5
:100CA0006F5F7F4FC6010E945204CE0101960E94E1
:100CB000460FF701828593858017910709F459C083
:100CC00013870287E484F58461E08E2D0E94F1127F
:100CD0000115110509F447C00F3F110509F445C07E
:100CE000F701FF27E659FD4FE491E330F9F048F4AE
:100CF000E130B9F0E230A1F584B5806284BD08BD71
:100D000038C0E730E9F0E83019F1E43049F5809176
:100D1000800080628093800010938B0000938A0093
:100D200028C084B5806884BD07BD23C08091800041
:100D3000806880938000109389000093880019C018
:100D40008091B00080688093B0000093B30011C020
:100D50008091B00080628093B0000093B40009C01D
:100D60000038110514F460E001C061E08E2D0E948E
:100D7000C11281E026960FB6F894DEBF0FBECDBF3C
:100D8000DF91CF911F910F91FF90EF90DF90CF9067
:100D90000895CF92DF92EF92FF920F931F93CF931C
:100DA000DF93EC0180E691E0998388837B836A83FB
:100DB0005D834C83B901CE0106960E94DC0F65EA83
:100DC00071E0CE010C960E94EE1465EA71E0CE014E
:100DD00042960E94EE1465EA71E0CE0148960E94A8
:100DE000EE1465EA71E0CE014E960E94EE141DA24B
:100DF0001CA21FA21EA219A618A67E0184E3E80E5B
:100E0000F11C87016E0182E5C80ED11C65EA71E014
:100E1000C8010E94EE140A5F1F4F0C151D05B1F7A3
:100E200065EA71E0C8010E94EE1465EA71E0CE0146
:100E3000885A9F4F0E94EE148C819D81892BA9F5C1
:100E4000E0913903F0913A0382E08083E091350329
:100E5000F09136031082E0913703F09138038FEC64
:100E6000808310924103E0913D03F0913E0386E0C0
:100E70008083E0913B03F0913C038081806180831B
:100E8000E0913B03F0913C03808188608083E09196
:100E90003B03F0913C03908190689083E0913B0389
:100EA000F0913C0390819F7D908363E672E0C701DF
:100EB0000E94180F69E672E0CE01CA960E94180FD0
:100EC0006FE672E0CE01805C9F4F0E94180F65E7CD
:100ED00072E0CE018A5B9F4F0E94180F6BE772E0B1
:100EE000CE01845B9F4FDF91CF911F910F91FF90B7
:100EF000EF90DF90CF900C94180FDF92EF92FF925B
:100F00000F931F93CF93DF93CDB7DEB727970FB61D
:100F1000F894DEBF0FBECDBF7C01D42E122FCE01C0
:100F200001965F830E94DC0F2D2D3F81AE014F5F44
:100F30005F4F61E070E0C7010E944E14CE01019640
:100F40000E94460F86E591E0F70191838083128A23
:100F5000118A158A168A178A108E118E80E090E009
:100F6000A0E0BFE3828F938FA48FB58F168E178E6C
:100F700016870787D08A60E0812F0E94F11260E017
:100F8000F70187850E94F11260E0F70180890E94D5
:100F9000F112F70186850E949812F701838B27963C
:100FA0000FB6F894DEBF0FBECDBFDF91CF911F917A
:100FB0000F91FF90EF90DF900895EF92FF920F93C3
:100FC0001F93CF93DF9300D000D000D0CDB7DEB712
:100FD0008C017A01CE0101960E94DC0F9701AE01CF
:100FE0004F5F5F4F64E070E0C8010E944E14CE0175
:100FF00001960E94460F8CE491E0D80111969C93D3
:101000008E931C968D919C911D9793968C9393979C
:1010100026E194962C9394979C013327F901EA5A80
:10102000FD4FE4919596EC939597F901EE5BFD4F9A
:10103000E4919696EC9340E85EE360E070E0F8019E
:1010400043A754A765A776A762E00E94F11280E348
:1010500098EFAFEFBFEFF80187A390A7A1A7B2A7C2
:1010600026960FB6F894DEBF0FBECDBFDF91CF91AD
:101070001F910F91FF90EF900895CF93DF93EC01B4
:1010800084E491E0998388837B836A83BA01CE01EB
:1010900004960E94DC0F1B861A861D861C86DF9133
:1010A000CF910895EF92FF921F93CF93DF93CDB727
:1010B000DEB727970FB6F894DEBF0FBECDBF7C0119
:1010C000142FCE0101965F830E94DC0F212F3F81F8
:1010D000AE014F5F5F4F62E070E0C7010E941803EE
:1010E000CE0101960E94460F88E391E0F7019183BB
:1010F000808317861686412F1E3008F04E504770A9
:10110000406440937C0080917A00806480937A00F0
:1011100080917A0086FDFCCF209178008091790043
:1011200030E0382BF7013387228727960FB6F894E3
:10113000DEBF0FBECDBFDF91CF911F91FF90EF902B
:1011400008951F920F920FB60F9211242F933F9381
:101150004F935F936F937F938F939F93AF93BF93BF
:10116000EF93FF93E0912606F0912706808180930C
:10117000250386E296E00E941802FF91EF91BF914D
:10118000AF919F918F917F916F915F914F913F911F
:101190002F910F900FBE0F901F9018951F920F92D6
:1011A0000FB60F9211242F933F934F935F936F933A
:1011B0007F938F939F93AF93BF93EF93FF93E091B0
:1011C0003006F091310680818093250380E396E01C
:1011D0000E941802FF91EF91BF91AF919F918F9163
:1011E0007F916F915F914F913F912F910F900FBE23
:1011F0000F901F9018951F920F920FB60F92112407
:101200002F933F934F935F936F937F938F939F930E
:10121000AF93BF93EF93FF93E0913A06F0913B06B3
:101220008081809325038AE396E00E941802FF9153
:10123000EF91BF91AF919F918F917F916F915F914E
:101240004F913F912F910F900FBE0F901F901895C7
:1012500080E991E00895559A08954F925F926F92B8
:101260007F928F92AF92BF92CF92EF92FF920F93A5
:101270001F93CF93DF933C01EB010E942D13F301E9
:1012800027853089621B730B6A307105B0F3F894BF
:10129000E881F9815BB150628BB18F7D8BB96A8532
:1012A0009F81262F291B922F2F83BF844A805B802A
:1012B0007D85FC84EE847F5FF394E3943E814885D2
:1012C000A984CB841181D20120E0C32F022F322FB9
:1012D0003181112788943111390F08F43FEF91952E
:1012E000889470FD130F1795889471FD130F17954F
:1012F000889472FD130F1795889473FD130F17953B
:10130000889474FD130F1795889475FD130F179526
:10131000889476FD130F1795889477FD130F179512
:101320008894232F7111212F960F122F002C5BB957
:1013300000C017FF8BB930812227889400C000C0FD
:10134000002C8BB931113C0F00C0002C5BB900C0E0
:1013500016FF8BB908F43FEFC195889400C000C018
:10136000002C8BB9F0FC230F00C0002C5BB900C02F
:1013700015FF8BB927958894F1FC230F00C000C09E
:10138000002C8BB92795889400C0002C5BB900C055
:1013900014FF8BB9F2FC230F2795889400C000C07E
:1013A000002C8BB9F3FC230F00C0002C5BB900C0EC
:1013B00013FF8BB927958894F4FC230F00C000C05D
:1013C000002C8BB92795889400C0002C5BB900C015
:1013D00012FF8BB9F5FC230F2795889400C000C03D
:1013E000002C8BB9F6FC230F00C0002C5BB900C0A9
:1013F00011FF8BB927958894F7FC230F00C000C01C
:10140000002C8BB92795889400C0002C5BB900C0D4
:1014100010FF8BB9132FF110122FCA0D00C000C09E
:10142000002C8BB900C000C0002C5BB900C017FFB6
:101430008BB932812227889400C000C0002C8BB960
:101440003111340F00C0002C5BB900C016FF8BB9FE
:1014500008F43FEFEB0DF11D00C000C0002C8BB96C
:10146000E0FC230F00C0002C5BB900C015FF8BB956
:1014700027958894E1FC230F00C000C0002C8BB995
:101480002795889400C0002C5BB900C014FF8BB96D
:10149000E2FC230F2795889400C000C0002C8BB974
:1014A000E3FC230F00C0002C5BB900C013FF8BB915
:1014B00027958894E4FC230F00C000C0002C8BB952
:1014C0002795889400C0002C5BB900C012FF8BB92F
:1014D000E5FC230F2795889400C000C0002C8BB931
:1014E000E6FC230F00C0002C5BB900C011FF8BB9D4
:1014F00027958894E7FC230F00C000C0002C8BB90F
:101500002795889400C0002C5BB900C010FF8BB9F0
:10151000132FE110122F419500C000C0002C8BB991
:101520004C0D00C000C05BB900C017FF8BB9318102
:101530002227889400C000C0002C8BB93111390FCC
:1015400000C0002C5BB900C016FF8BB908F43FEF58
:101550009195889400C000C0002C8BB970FD230FBA
:1015600000C0002C5BB900C015FF8BB9279588948B
:1015700071FD230F00C000C0002C8BB92795889403
:1015800000C0002C5BB900C014FF8BB972FD230FA3
:101590002795889400C000C0002C8BB973FD230FE1
:1015A00000C0002C5BB900C013FF8BB9279588944D
:1015B00074FD230F00C000C0002C8BB927958894C0
:1015C00000C0002C5BB900C012FF8BB975FD230F62
:1015D0002795889400C000C0002C8BB976FD230F9E
:1015E00000C0002C5BB900C011FF8BB9279588940F
:1015F00077FD230F00C000C0002C8BB9279588947D
:1016000000C0002C5BB900C010FF8BB9132F711103
:10161000122F960F00C000C0002C8BB9119709F053
:1016200086CE20EE31E0D2010E94071FDC01CB0103
:10163000F4E0B695A79597958795FA95D1F720E0B0
:1016400030E0A9016AE9469E412D569E400D511D8C
:101650001124840F951FA11DB11D893E43E09407FD
:10166000A105B10588F1885E9340A109B10942E066
:10167000B695A795979587954A95D1F747E0849FAA
:10168000212D949F200D311D11246091260370E0BF
:10169000860F971F820F931F40914E0650914F0661
:1016A0006091500670915106292F3327420F531F26
:1016B000611D711D40934E0650934F066093500676
:1016C000709351068093260378940E942D13F301A2
:1016D000708B6787DF91CF911F910F91FF90EF90F3
:1016E000CF90BF90AF908F907F906F905F904F9012
:1016F00008950F931F93CF93DF93CDB7DEB7629713
:101700000FB6F894DEBF0FBECDBF8C01F901DC012E
:101710001C968C917A8369835C834B835E834D83B3
:1017200090819D8791819E8792819F87813029F446
:10173000CE0101960E94751406C01C861B861A866F
:10174000198618861F82188A1A8A198AD801ED917B
:10175000FC910484F585E02DBE016F5F7F4FC801C9
:10176000099562960FB6F894DEBF0FBECDBFDF912C
:10177000CF911F910F9108950F931F93CF93DF93F4
:10178000CDB7DEB762970FB6F894DEBF0FBECDBF00
:101790008C01F901DC011C968C917A8369835C834E
:1017A0004B835E834D8390819D8791819E8792813B
:1017B0009F87813029F4CE0101960E94751406C0DE
:1017C0001C861B861A86198618861F8283E0888BE2
:1017D0001A8A198AD801ED91FC910484F585E02DCF
:1017E000BE016F5F7F4FC801099562960FB6F894EE
:1017F000DEBF0FBECDBFDF91CF911F910F91089536
:10180000CF93DF93EC0184E791E099838883CE0145
:1018100084589F4F0E94460FCE01DF91CF910C94C8
:10182000AE02CF93DF93EC010E94000CCE01DF915A
:10183000CF910C94742120E0DC0160FF03C001C053
:101840002D932D936250E0F77040D0F70895FC017E
:1018500024813581232B31F421E061157105A1F03C
:10186000FB0108C0FC01808191816115710531F493
:1018700021E0FC018081882339F005C00E94AF205F
:1018800021E0892B09F020E0822F0895CF93DF9388
:10189000EC0188819981009711F00E9474211982CE
:1018A00018821D821C821B821A82DF91CF910895BB
:1018B0000F931F93CF93DF93EC0188819981009759
:1018C00029F02A813B812617370788F48B016F5F47
:1018D0007F4F0E94D01F009761F0998388831B83FC
:1018E0000A832C813D81232B11F4FC01108281E0BD
:1018F00001C080E0DF91CF911F910F9108950F9368
:101900001F93CF93DF93EC010C811D810F5F1F4F5D
:10191000B8010E94580C882369F0288139818C8194
:101920009D8169ED72E0820F931F0E94B8201D8394
:101930000C8303C0CE010E94460CCE01DF91CF91F3
:101940001F910F910895FC0144815581608171813F
:1019500089E293E00C94C314009769F0FC010190B4
:101960000020E9F73197AF01481B590BBC0189E210
:1019700093E00C94C31480E090E0089542E050E0BE
:1019800063EA71E089E293E00C94C3143F924F92B2
:101990005F926F927F928F929F92AF92BF92CF92FF
:1019A000DF92EF92FF920F931F93CF93DF9300D0BC
:1019B0001F92CDB7DEB7F82E80910F0490911004DE
:1019C000A0911104B0911204892B8A2B8B2BE9F082
:1019D0000E942D1300914A0610914B0620914C064F
:1019E00030914D06DC01CB01801B910BA20BB30B98
:1019F00000910F04109110042091110430911204F1
:101A000080179107A207B307B8F20E942D136093C5
:101A10004A0670934B0680934C0690934D06E091D6
:101A20001704F0911804309759F040911304509125
:101A3000140460911504709116048F2D0995F82EE9
:101A400000912703109128034F2C512C612C712CED
:101A50000115110509F461C0D8011C96EC901C9782
:101A600080910D0490910E048436910510F41C961B
:101A70001C92D801ED91FC91A280B38019821A8248
:101A80001B82F11014C0F80145855685628173816F
:101A90009E012F5F3F4FC801F5010995D8011C96A3
:101AA000EC921C9714960D911C911597D1CFF801CB
:101AB0003996CE0101966C0148019CE0890E911C7B
:101AC000DF0113973C902191332001F12223F1F0A3
:101AD000822F90E0A0E0B0E09C01AD012F5F3F4F6E
:101AE0004F4F5F4FC301B2010E947F259B01AC01A4
:101AF000832D90E0A0E0B0E0BC01CD016F5F7F4F8F
:101B00008F4F9F4F0E947F25D6018C93BFEFCB1A3A
:101B1000DB0AE815F905A1F6B6CF80914806909149
:101B200049068C010F5F1F4F10934906009348062A
:101B300049979CF10E9452134B015C0188EE93E09F
:101B4000089FB001099F700D189F700D1124072E7A
:101B5000000C880B990BC0904406D0904506E0908D
:101B60004606F0904706A50194012C193D094E093F
:101B70005F090E948F2530930E0420930D0410926C
:101B80004906109248060E945213609344067093CF
:101B9000450680934606909347060F900F900F904E
:101BA000DF91CF911F910F91FF90EF90DF90CF9039
:101BB000BF90AF909F908F907F906F905F904F906D
:101BC0003F9008950F931F93CF93C82F8B0168EF19
:101BD00071E0C8010E94270C8823A1F02C2F30E06F
:101BE000F901EE0FFF1FE557FA4F90818091AD0587
:101BF000981740F0220F331FF901E657FA4F808102
:101C00008130E9F067E072E0C8010E94270C882368
:101C1000C1F08C2F90E0FC01EE0FFF1FE559FA4F49
:101C200030812091AE05231760F0880F991FFC01C9
:101C3000E659FA4F81E09081913019F403C081E0B8
:101C400001C080E0CF911F910F9108950F931F93D2
:101C5000CF93C82F8B0162E072E0C8010E94270C6D
:101C60008823A9F02C2F30E0C901880F991F280F75
:101C7000391F29573B4FF901EC54FF4F9081809158
:101C8000AC05981720F0319780818130F1F061EF39
:101C900071E0C8010E94270C8823C9F08C2F90E0C6
:101CA0009C01220F331F820F931F89579B4FFC010A
:101CB000EC57FF4F30812091AB05321740F0319740
:101CC00081E09081913019F403C081E001C080E08F
:101CD000CF911F910F910895CF93DF93C091270368
:101CE000D0912803209789F08A819B81009749F041
:101CF0006D857E859B01220F331F620F731F0E942B
:101D00001B0C0C80DD81C02DEDCFDF91CF910895AC
:101D1000EF92FF920F931F93CF93DF93EC01FB01A0
:101D200084819581E080F1800C811D81E114F104B2
:101D3000B1F00097B9F0080F191FB801CE010E9449
:101D4000580C882361F0288139818C819D81B701ED
:101D5000820F931F0E94B8201D830C8303C0CE0105
:101D60000E94460CCE01DF91CF911F910F91FF9001
:101D7000EF9008950F931F93CF93DF938C01EB01A6
:101D80008617970771F1FC01808191810097B1F06E
:101D9000688179816115710579F0428153812C81C7
:101DA0003D814217530740F00E94B8208C819D81ED
:101DB000F8019583848313C00E94742188819981DE
:101DC000F801918380838A819B81938382838C81B4
:101DD0009D8195838483198218821B821A821D82B9
:101DE0001C82C801DF91CF911F910F910895EF924E
:101DF000FF920F931F93CF93DF93EC017B018A0136
:101E0000BA010E94580C811104C0CE010E94460CF8
:101E100007C01D830C83B701888199810E94B82077
:101E2000CE01DF91CF911F910F91FF90EF90089518
:101E3000CF93DF93EC016115710559F0FB0101901F
:101E40000020E9F73197AF01461B570B0E94F70EB0
:101E500002C00E94460CCE01DF91CF910895CF932E
:101E6000DF93EC01FB018617970761F060817181B8
:101E70006115710529F0448155810E94F70E02C059
:101E80000E94460CCE01DF91CF910895FC01808124
:101E900091810C9474210F931F93CF93DF93CDB74F
:101EA000DEB762970FB6F894DEBF0FBECDBF8C01D0
:101EB000CB01F801118210821382128215821482E2
:101EC00050E0BE016F5F7F4F0E941C22BE016F5F1A
:101ED0007F4FC8010E94180F62960FB6F894DEBFBC
:101EE0000FBECDBFDF91CF911F910F9108950F933A
:101EF0001F93CF93DF93CDB7DEB729970FB6F89432
:101F0000DEBF0FBECDBF8C01862FF801118210827B
:101F1000138212821582148250E0BE016F5F7F4FE0
:101F200090E00E943222BE016F5F7F4FC8010E9485
:101F3000180F29960FB6F894DEBF0FBECDBFDF9104
:101F4000CF911F910F910895EF92FF920F931F93DE
:101F5000CF93DF93EC01198218821B821A821D82B3
:101F60001C826115710509F18B01CB010E941322BE
:101F70007C01BC01CE010E94580C811109C0CE0128
:101F8000DF91CF911F910F91FF90EF900C94460C31
:101F9000FD82EC82B80188819981DF91CF911F91F8
:101FA0000F91FF90EF900C940C22DF91CF911F9135
:101FB0000F91FF90EF900895FC011182108213821F
:101FC0001282158214820C942F0FBF92CF92DF924F
:101FD000EF92FF920F931F93CF93DF93CDB7DEB7AE
:101FE000A1970FB6F894DEBF0FBECDBF6C01BC0148
:101FF000CE0140960E94DC0F6BED72E0CE0146965A
:102000000E94EE14BE01605F7F4FCE0146960E9493
:10201000880EBC01CE0101967C010E94DC0F44E0D9
:1020200050E0B70188EC95E00E945204C7010E947D
:10203000460FCE0146960E94460FCE0140960E9462
:10204000460F8FE0F70111928A95E9F762E072E09E
:10205000C6010E94270C882309F476C03091CE0473
:1020600010E020E0822F90E0FC01EE0FFF1F8E0FAA
:102070009F1FFC01E65CFA4F8081813029F4F70153
:10208000E10FF11D20831F5F2F5F321758F760911A
:10209000B005812F0E94C81E682F70E080E090E09C
:1020A0000E94CF2420E030E040E05FE30E94291F3F
:1020B0000E94951FB62E00E00E940B04819FC00174
:1020C0001124E92FFF27EE0DFF1D6081262F30E040
:1020D000F901EE0FFF1F2E0F3F1FF901E55CFA4FCC
:1020E0008091AC0580830F5F4AE0CE0146960E9446
:1020F000770F61EF72E0CE014C960E94EE14BE01A4
:102100006A5E7F4FCE014C960E94880EBC01CE01C4
:1021100040960E94DC0F43E050E0BE01605F7F4FBD
:1021200088EC95E00E945204CE0140960E94460F32
:10213000CE014C960E94460FCE0146960E94460F55
:10214000B01608F0B9CF02C000E010E061EF71E016
:10215000C6010E94270C882309F474C03091CE0474
:1021600020E0822F90E0FC01EE0FFF1F8E0F9F1FDB
:10217000FC01E65FFA4F8081813029F4F701E10F1D
:10218000F11D20831F5F2F5F321758F76091AF0555
:10219000812F0E94C81E682F70E080E090E00E94AE
:1021A000CF2420E030E040E05FE30E94291F0E943E
:1021B000951FD62ED01608F445C00E940B04819FAF
:1021C000C0011124E92FFF27EE0DFF1D6081862F2E
:1021D00090E0FC01EE0FFF1F8E0F9F1FFC01E55FDB
:1021E000FA4F8091AB0580830F5F4AE0CE0146969F
:1021F0000E94770F61EF72E0CE014C960E94EE14C0
:10220000BE016A5E7F4FCE014C960E94880EBC01D3
:10221000CE0140960E94DC0F43E050E0BE01605FBB
:102220007F4F88EC95E00E945204CE0140960E94B8
:10223000460FCE014C960E94460FCE0146960E9454
:10224000460FB8CFA1960FB6F894DEBF0FBECDBF34
:10225000DF91CF911F910F91FF90EF90DF90CF9082
:10226000BF900895FC01918D828D981761F0828D49
:10227000DF01A80FB11D5D968C91928D9F5F9F73BA
:10228000928F90E008958FEF9FEF0895FC01918D5C
:10229000828D981731F0828DE80FF11D858D90E0C9
:1022A00008958FEF9FEF0895FC01918D228D892F66
:1022B00090E0805C9F4F821B91098F73992708954E
:1022C00089E293E00E94541121E0892B09F420E077
:1022D000822F0895FC01848DDF01A80FB11DA35A40
:1022E000BF4F2C91848D90E001968F739927848F36
:1022F000A689B7892C93A089B1898C9180648C932D
:10230000938D848D981306C00288F389E02D808117
:102310008F7D80830895EF92FF920F931F93CF9349
:10232000DF93EC0181E0888F9B8D8C8D981305C025
:10233000E889F989808185FD24C0F62E0B8D10E097
:102340000F5F1F4F0F731127E02E8C8DE8120CC00A
:102350000FB607FCFACFE889F989808185FFF5CFB0
:10236000CE010E946A11F1CF8B8DFE01E80FF11DA5
:10237000E35AFF4FF0820B8FEA89FB8980818062EC
:1023800007C0EE89FF896083E889F98980818064CC
:10239000808381E090E0DF91CF911F910F91FF90BA
:1023A000EF900895CF93DF93EC01888D8823C9F0D7
:1023B000EA89FB89808185FD05C0A889B9898C914E
:1023C00086FD0FC00FB607FCF5CF808185FFF2CFE9
:1023D000A889B9898C9185FFEDCFCE010E946A1141
:1023E000E7CFDF91CF91089580E090E0892B29F02D
:1023F0000E94601181110C9400000895833081F0D7
:1024000028F4813099F08230A1F008958730A9F046
:102410008830B9F08430D1F4809180008F7D03C082
:10242000809180008F7780938000089584B58F77A6
:1024300002C084B58F7D84BD08958091B0008F77F0
:1024400003C08091B0008F7D8093B0000895FC019F
:102450007387628781E008950E949A202EE831E018
:10246000FC013183208304960C94460FCF93DF93B5
:10247000EC010E942E12CE01DF91CF910C947421B9
:102480001F920F920FB60F9211242F933F934F93E9
:102490005F936F937F938F939F93AF93BF93EF93CC
:1024A000FF9389E293E00E946A11FF91EF91BF913F
:1024B000AF919F918F917F916F915F914F913F91DC
:1024C0002F910F900FBE0F901F9018951F920F9293
:1024D0000FB60F9211242F938F939F93EF93FF9337
:1024E000E0913903F0913A038081E0913F03F0914C
:1024F000400382FD12C09081809142038F5F8F73F1
:1025000020914303821751F0E0914203F0E0E75D30
:10251000FC4F958F8093420301C08081FF91EF9122
:102520009F918F912F910F900FBE0F901F90189534
:10253000CF93DF93282F30E0F901E659FD4F8491C6
:10254000F901EA5AFD4FD491F901EE5BFD4FC491B8
:10255000CC2391F081110E94FE11EC2FF0E0EE0FE0
:10256000FF1FEC5DFD4FA591B491EC91ED2381E04F
:1025700090E021F480E002C080E090E0DF91CF9114
:1025800008951F93CF93DF93282F30E0F901E65988
:10259000FD4F8491F901EA5AFD4FD491F901EE5BA8
:1025A000FD4FC491CC23C9F0162F81110E94FE115A
:1025B000EC2FF0E0EE0FFF1FE85CFD4FA591B4910A
:1025C0008FB7F894111105C09C91ED2FE095E92388
:1025D00002C0EC91ED2BEC938FBFDF91CF911F9157
:1025E0000895CF93DF9390E0FC01EA5AFD4F2491C8
:1025F000FC01EE5BFD4F8491882361F190E0880F30
:10260000991FFC01E25DFD4FC591D491FC01E85C8E
:10261000FD4FA591B491611109C09FB7F8948881CD
:10262000209582238883EC912E230BC0623061F4C5
:102630009FB7F8943881822F809583238883EC910B
:102640002E2B2C939FBF06C08FB7F894E8812E2BBA
:1026500028838FBFDF91CF9108953FB7F894809181
:10266000540690915506A0915606B091570626B58E
:10267000A89B05C02F3F19F00196A11DB11D3FBFBA
:10268000BA2FA92F982F8827820F911DA11DB11D48
:10269000BC01CD0142E0660F771F881F991F4A9544
:1026A000D1F708952FB7F89460914E0670914F06B8
:1026B00080915006909151062FBF08951F920F925E
:1026C0000FB60F9211242F933F938F939F93AF9345
:1026D000BF9380914E0690914F06A0915006B09105
:1026E00051063091530623E0230F2D3720F4019635
:1026F000A11DB11D05C026E8230F0296A11DB11D25
:102700002093530680934E0690934F06A093500655
:10271000B09351068091540690915506A0915606AB
:10272000B09157060196A11DB11D80935406909358
:102730005506A0935606B0935706BF91AF919F914F
:102740008F913F912F910F900FBE0F901F90189572
:10275000DC01FB014C9111965C91119712967C91D2
:10276000342F3F71330F330F832F880F35E5282F18
:10277000239F020E20E0211D1124642F6074942FEA
:10278000907247FD21C061110BC0911104C0822FCE
:102790008095422F11C045E5420F30E02BEA33C04F
:1027A00091110DC0382F4AEA349F030E30E0311DDD
:1027B00011248BEA831B420F282F30E024C080E0D5
:1027C000422F4095322F0EC0611111C091110CC0E3
:1027D000382F2AEA329F030E30E0311D11244BEAD4
:1027E000431B3B5A20E00FC0322F30950BC0911194
:1027F00004C085E5820F3BEA03C08AEA820F90E0BD
:10280000321B282F40E05F3F11F15523E9F02223CE
:1028100021F0259F020E20E0211D442321F0459F39
:10282000040E40E0411D332321F0359F030E30E0BC
:10283000311D11245095559F050E50E0511D112456
:10284000250F450F350F03C03FEF4FEF2FEF7F3FB1
:1028500009F420C050E0772321F0779F512D09F033
:102860005F5F5523A1F0222321F0259F020E20E077
:10287000211D442321F0459F040E40E0411D3323D8
:1028800021F0359F030E30E0311D112403C030E0EC
:1028900040E020E020834183328308950F931F930B
:1028A000CF93DF9300D0CDB7DEB78C018EE891E0F7
:1028B000F8019183808373836283BA01C80104960F
:1028C00029833A830E94DC0FF8011386128629813E
:1028D00024873A81358760E0822F0F900F90DF9137
:1028E000CF911F910F910C94F112EF92FF920F93E1
:1028F0001F93CF93DF93EC01909152069F5F292F96
:1029000027702093520690FF02C090E801C090E02B
:1029100021FD9064247009F0906220E1290FFE01EE
:102920003C967E018FE0E80EF11C00E011E0619121
:10293000662331F070E0C8010E94D41E6F5F01C0B1
:1029400060E0DF0114976C93322F369F030E30E066
:10295000311D1124CF010797311103C0EC011882FA
:1029600003C03150EC013883662311F061506C9341
:10297000EE15FF05E1F6DF91CF911F910F91FF90CA
:10298000EF9008950895CF92DF92EF92FF920F9308
:102990001F93CF93DF936C017A018B01C0E0D0E0ED
:1029A000CE15DF0589F0D8016D918D01D601ED912D
:1029B000FC910190F081E02DC6010995892B11F45D
:1029C0007E0102C02196ECCFC701DF91CF911F910C
:1029D0000F91FF90EF90DF90CF900895FC0111824E
:1029E000108213821282158214826115710551F0D2
:1029F000FB0101900020E9F73197AF01461B570B0F
:102A00000C94F70E0895CF93DF93CDB7DEB7E99717
:102A10000FB6F894DEBF0FBECDBF789484B5826048
:102A200084BD84B5816084BD85B5826085BD85B572
:102A3000816085BD80916E00816080936E001092F0
:102A4000810080918100826080938100809181006B
:102A500081608093810080918000816080938000FC
:102A60008091B10084608093B1008091B00081605A
:102A70008093B00080917A00846080937A00809186
:102A80007A00826080937A0080917A0081608093DE
:102A90007A0080917A00806880937A001092C10059
:102AA000109208041092090410920A0410920B0468
:102AB0001092C8031092C9031092CA031092CB035C
:102AC0000E9452136B017C014B015C0128EB820ECA
:102AD0002BE0921EA11CB11C0E9452136C157D05A7
:102AE0008E059F0528F086169706A806B906A0F75A
:102AF0000E942D134B015C0118EEC12E13E0D12E64
:102B0000E12CF12C0E942D13DC01CB0188199909CD
:102B1000AA09BB09883E9340A105B10558F031E0F0
:102B2000C31AD108E108F10888EE880E83E0981EE8
:102B3000A11CB11CC114D104E104F10419F7E09106
:102B40003903F0913A0382E08083E0913503F091FC
:102B500036031082E0913703F091380380E18083DF
:102B600010924103E0913D03F0913E0386E08083A3
:102B7000E0913B03F0913C03808180618083E09190
:102B80003B03F0913C03808188608083E0913B03AC
:102B9000F0913C03808180688083E0913B03F09159
:102BA0003C0380818F7D80830E9452136093C80311
:102BB0007093C9038093CA039093CB0384E991E097
:102BC0000E94AC0C0E9452136B017C014B015C0112
:102BD000FAE08F0E911CA11CB11C0E9452136C15BF
:102BE0007D058E059F0528F086169706A806B9066E
:102BF000A0F781E08093DC036CEB70E09E012F5F17
:102C00003F4F7901C9010E94A40F43E050E0B70192
:102C100088EC95E00E945204C7010E94460F68E6C6
:102C200070E0C7010E94A40F43E050E0B70188ECB8
:102C300095E00E945204C7010E94460F8FEF8093D7
:102C4000CD048093CB0410920C040E946C0E0E9461
:102C50006C0E2091CD049091CB0490930C040091C4
:102C6000CE0480E0E82FF0E0E957FB4F978B25ABCF
:102C70008F5F0817B8F710E080910F03811145C0EE
:102C800010920103109200038FEF8093040380934E
:102C900005038093060380930703809308038093C2
:102CA000090381E080930A0310920C0310920B0336
:102CB000109203031092020380912703909128033E
:102CC000892B31F48EEF92E09093280380932703B1
:102CD000E091FC02F091FD02309721F08EEF92E03E
:102CE000958384838EEF92E09093FD028093FC02A3
:102CF00010920E0310920D038CE191E09093FF026D
:102D00008093FE0281E080930F03E091FE02F09138
:102D1000FF020480F581E02D8EEF92E009958FECA3
:102D200094E0909301038093000310930C030093AD
:102D30000B03E091FE02F091FF020284F385E02D87
:102D40008EEF92E00995009729F19C0140E050E058
:102D500060E472E48FE090E00E94E81E722F632F1F
:102D600000910F041091100420911104309112046D
:102D7000872F962FDA0180179107A207B30710F467
:102D8000D901C80180930F0490931004A0931104FB
:102D9000B09312044091CE0433E0439FA00111246C
:102DA00060E070E08FEC94E00E94A82080E090E06A
:102DB000A0E0BFE38093330490933404A0933504E0
:102DC000B09336048DEC9CECACE4BDE380939904A5
:102DD00090939A04A0939B04B0939C0462EB70E0E0
:102DE000C7010E94A40F43E050E0B70188EC95E0D2
:102DF0000E945204C7010E94460F68E770E0C701B5
:102E00000E94A40F44E050E0B70188EC95E00E94D6
:102E10005204C7010E94460F2091CB048091CD043B
:102E20009091CC04211105C0911105C08F3F31F460
:102E300081C01092CB0491111092CC048F3F19F0F5
:102E40008FEF8093CD044AE06091CD04CE018E9641
:102E50000E94770F4AE06091CB04CE0188960E94D1
:102E6000770F4AE06091CC04CE0182960E94770FE2
:102E700066EA71E0C7010E94EE14BE016E5D7F4FED
:102E8000C7010E94880EBE01685D7F4F0E94880EB8
:102E9000BE01625D7F4F0E94880EBC01CE01C496C8
:102EA0000E94DC0F43E050E0BE016C5C7F4F88EC79
:102EB00095E00E945204CE01C4960E94460FC701BD
:102EC0000E94460FCE0182960E94460FCE01889640
:102ED0000E94460FCE018E960E94460FD12C809103
:102EE000CE048D1518F18091CD049091CB042091E2
:102EF000CC0429839A838B830D2D10E0B801660FD3
:102F0000771F600F711F61537B4FC7010E94A81389
:102F1000F801E957FB4F8091CC0486A38091CB0444
:102F2000878B8091CD0485ABD394D9CF80910C044D
:102F30000E94C60C64E970E0C7010E94A40F44E03F
:102F400050E0B70188EC95E00E945204C7010E944E
:102F5000460F81E08093AA055091CE047091AE0592
:102F60006091AD0540E0E42FF0E09F01220F331F98
:102F7000C9018E0F9F1F89579B4FDC01AD57BF4F73
:102F80001C9211961C9211967C939E961C921196FF
:102F90001C9211966C93C90189579B4FDC01AD5F60
:102FA000BE4F1C92D901A557BA4F1C92DC01AD51FE
:102FB000BF4F1C92F901E559FA4F10824F5F541729
:102FC00090F68091580690915906B701681B790BCD
:102FD0004AE0CE0182960E944B0F67EB71E0CE0172
:102FE00088960E94EE14BE016E5D7F4FCE018896DA
:102FF0000E94880EBC01C7010E94DC0F40E050E037
:10300000B70188EC95E00E945204C7010E94460F68
:10301000CE0188960E94460FCE0182960E94460FEE
:10302000DD24D394CC24CA940E94521300911F0330
:103030001091200320912103309122036017710722
:103040008207930709F4C3C10E94521360931F03C0
:1030500070932003809321039093220360EF70E02C
:10306000C7010E94A40F44E050E0B70188EC95E04E
:103070000E945204C7010E94460F809127040E94BB
:10308000981280932D0490912C04891709F4D8C0CC
:10309000809128040E94981220912D0430E06091C4
:1030A0002A0470912B0482179307C9F0072E000C95
:1030B000880B990B0E94CF24209133043091340463
:1030C00040913504509136040E94291F0E94951F9B
:1030D00070932B0460932A04D0922E0418C010928F
:1030E0002E04072E000C880B990B0E94CF242091F0
:1030F00033043091340440913504509136040E94D9
:10310000281F0E94951F70932B0460932A0467EE7A
:1031100070E0C7010E94A40F44E050E0B70188ECC2
:1031200095E00E945204C7010E94460F80912E0430
:103130008823C1F064ED70E0C7010E94A40F44E051
:1031400050E0B70188EC95E00E945204C7010E944C
:10315000460FC0923104809132048F3FC1F4109227
:10316000310415C068EC70E0C7010E94A40F44E070
:1031700050E0B70188EC95E00E945204C7010E941C
:10318000460FD092310480913204813041F3609136
:103190002A0470912B044AE0CE0182960E944B0FC4
:1031A00065EC71E0C7010E94EE14BE016E5D7F4FB9
:1031B000C7010E94880EBC01CE0188960E94DC0FD8
:1031C00042E050E0BE01685D7F4F88EC95E00E94D0
:1031D0005204CE0188960E94460FC7010E94460FF6
:1031E000CE0182960E94460F4AE060913104CE01E2
:1031F00082960E94770F68ED71E0C7010E94EE147D
:10320000BE016E5D7F4FC7010E94880EBC01CE01DA
:1032100088960E94DC0F42E050E0BE01685D7F4F5F
:1032200088EC95E00E945204CE0188960E94460FD9
:10323000C7010E94460FCE0182960E94460F02C02F
:103240001092310480912D0480932C0480913104DC
:1032500080933204811141C060919504709196046D
:1032600080919704909198041BA21AA21DA21CA2FF
:103270001FA21EA2870122E044E00E94BF20BC01E1
:10328000CE0182960E94180F69EE71E0C7010E947C
:10329000EE14BE016E5D7F4FC7010E94880EBC0117
:1032A000CE0188960E94DC0F42E050E0BE01685DCE
:1032B0007F4F88EC95E00E945204CE0188960E94D0
:1032C000460FC7010E94460FCE0182960E94460F0C
:1032D00080910C040E94C60C7AC062E071E0C701C4
:1032E0000E94A40F44E050E0B70188EC95E00E94F2
:1032F0005204C7010E94460F10E08091CE041817B7
:1033000008F0AACF0091CD049090CB04A12EB12C4F
:1033100060919D04169FB0011124072E000C880BAC
:10332000990B0E94CF2420919504309196044091EE
:103330009704509198040E94291F0E949C1F698342
:103340009A820B83B501660F771F6A0D7B1D61534F
:103350007B4FC7010E94A8132091990430919A04D1
:1033600040919B0450919C04609195047091960447
:1033700080919704909198040E94291F2B013C0191
:1033800060939504709396048093970490939804A7
:10339000C50189579B4F5C01C301B2010E949C1F6C
:1033A000D50196966C9320E030E04FE753E4C301DB
:1033B000B2010E94CB1F87FD08C0109295041092A5
:1033C000960410929704109298041F5F96CF0E9463
:1033D000521300911B0310911C0320911D03309187
:1033E0001E03DC01CB01801B910BA20BB30BC29718
:1033F000A105B10508F407C30E94521360931B0393
:1034000070931C0380931D0390931E036CED71E079
:10341000C7010E94A40F44E050E0B70188EC95E09A
:103420000E945204C7010E94460F8091AA05811193
:103430003CC39091CE04E82FF0E0EE0FFF1FE6575B
:10344000FA4F20812130C9F18F5F9817A0F72DC363
:10345000092D10E0F801E957FB4F5F0125A93091D4
:10346000AE05321778F0C801880F991F800F911FA1
:1034700089579B4FFC01ED57FF4FD0823196108248
:10348000319620838091AD05281708F42EC3C8011A
:10349000880F991F080F191F09571B4FF801ED548A
:1034A000FF4FD08231961082319620839394809181
:1034B000CE04891568F61092AA0561EF71E0C70184
:1034C0000E94EE14C7010E94E50FC7010E94460F3B
:1034D00064E971E0C7010E94A40F44E050E0B70125
:1034E00088EC95E00E945204C7010E94460F10E04C
:1034F0008091CE04811768F161EF71E0C7010E94ED
:10350000EE14B701812F0E94260E082FC7010E94DA
:10351000460F0023E1F0212F30E0C901880F991FE9
:10352000AC01420F531F49575B4FFA01ED57FF4F54
:103530001082319610826091AE0531966083FC0155
:10354000E657FA4FD082FC01E557FA4F60831F5FC0
:10355000CFCF69E771E0C7010E94A40F44E050E0BB
:10356000B70188EC95E00E945204C7010E94460F03
:1035700010E08091CE04811760F168EF71E0C7011F
:103580000E94EE14B701812F0E94E20D082FC7019F
:103590000E94460F0023D9F0212F30E0A901440FEB
:1035A000551FFA01E657FA4F10828091AE05FA01D5
:1035B000E557FA4F8083240F351F29573B4FF901F8
:1035C000ED54FF4FD08231961082319680831F5F79
:1035D000D0CF62E072E0C7010E94EE14C7010E94E2
:1035E000E50FC7010E94460F63E671E0C7010E9424
:1035F000A40F44E050E0B70188EC95E00E9452042B
:10360000C7010E94460F10E08091CE04811768F137
:1036100062E072E0C7010E94EE14B701812F0E94A0
:10362000260E082FC7010E94460F0023E1F0212F2C
:1036300030E0C901880F991FAC01420F531F495751
:103640005B4FFA01ED54FF4F10823196108260916A
:10365000AD0531966083FC01E659FA4FD082FC013A
:10366000E559FA4F60831F5FCFCF68E471E0C7016F
:103670000E94A40F44E050E0B70188EC95E00E945E
:103680005204C7010E94460F10E08091CE048117BA
:1036900060F167E072E0C7010E94EE14B701812F6C
:1036A0000E94E20D082FC7010E94460F0023D9F0A7
:1036B000212F30E0A901440F551FFA01E659FA4FB6
:1036C00010828091AD05FA01E559FA4F8083240FED
:1036D000351F29573B4FF901ED57FF4FD0823196E7
:1036E0001082319680831F5FD0CF6EE271E0C701F8
:1036F0000E94A40F44E050E0B70188EC95E00E94DE
:103700005204C7010E94460F712C8091CE04871588
:1037100008F4F7C0072D10E04801880C991CC4017B
:10372000800F911F89579B4FFC01ED54FF4F208163
:10373000213099F55C01B4EBAB0EB11C4AE0F50108
:103740006081CE0182960E94770F61E172E0C7012D
:103750000E94EE14BE016E5D7F4FC7010E94880E6D
:10376000BC01CE0188960E94DC0F43E050E0BE0110
:10377000685D7F4F88EC95E00E945204CE018896E8
:103780000E94460FC7010E94460FCE0182960E94FA
:10379000460FD5018C918F5F8C93C401800F911FD0
:1037A00089579B4FFC01ED57FF4F2081213099F540
:1037B0005C01B4E8AB0EB11C4AE0F5016081CE01BA
:1037C00082960E94770F6AE172E0C7010E94EE14B0
:1037D000BE016E5D7F4FC7010E94880EBC01CE0105
:1037E00088960E94DC0F43E050E0BE01685D7F4F89
:1037F00088EC95E00E945204CE0188960E94460F04
:10380000C7010E94460FCE0182960E94460FD50145
:103810008C918F5F8C93F401E657FA4F8081813051
:10382000A9F5C801880F991FFC01E557FA4F5F0100
:103830004AE06081CE0182960E94770F65E272E0D5
:10384000C7010E94EE14BE016E5D7F4FC7010E944A
:10385000880EBC01CE0188960E94DC0F43E050E048
:10386000BE01685D7F4F88EC95E00E945204CE0156
:1038700088960E94460FC7010E94460FCE0182968D
:103880000E94460FD5018C918F5F8C93F401E6590D
:10389000FA4F8081813099F5000F111F05591A4F99
:1038A0004AE0F8016081CE0182960E94770F63E3BF
:1038B00072E0C7010E94EE14BE016E5D7F4FC7012A
:1038C0000E94880EBC01CE0188960E94DC0F43E066
:1038D00050E0BE01685D7F4F88EC95E00E94520485
:1038E000CE0188960E94460FC7010E94460FCE0166
:1038F00082960E94460FD8018C9181508C937394CC
:1039000004CF63E171E0C7010E94A40F44E050E0DE
:10391000B70188EC95E00E945204C7010E94460F4F
:103920007091CE0460E0862F90E09C01220F331F3F
:10393000A901480F591F49575B4FFA01ED54FF4F3A
:10394000E081E13041F4FA01EB54FF4F4081FC018A
:10395000E957FB4F45ABA901480F591F49575B4F2A
:10396000FA01ED57FF4FE081E13041F4FA01EB57E6
:10397000FF4F4081FC01E957FB4F45ABF901E6578A
:10398000FA4F4081413051F4FC01EE0FFF1FE55723
:10399000FA4F4081FC01E957FB4F45ABF901E6596D
:1039A000FA4F2081213059F4DC01A957BB4F880F11
:1039B000991FFC01E559FA4F8081D5968C936F5F72
:1039C000761708F0B0CF10E08091CE048117B8F0E0
:1039D000612F70E0FB01E957FB4F85A9978926A16C
:1039E00029839A838B83CB01880F991F680F791FD6
:1039F00061537B4FC7010E94A8131F5FE5CF8091E1
:103A00000C040E94C60C0E945213009117031091DF
:103A100018032091190330911A03DC01CB01801B9C
:103A2000910BA20BB30B843C9940A105B105D0F1D9
:103A30000E94521360931703709318038093190325
:103A400090931A038091580690915906B701681B0C
:103A5000790B4AE0CE0182960E944B0F67EB71E032
:103A6000C7010E94EE14BE016E5D7F4FC7010E9428
:103A7000880EBC01CE0188960E94DC0F40E050E029
:103A8000BE01685D7F4F88EC95E00E945204CE0134
:103A900088960E94460FC7010E94460FCE0182966B
:103AA0000E94460F0E94F411BFCA6AEC71E0C70180
:103AB0000E94A40F43E050E0B70188EC95E00E941B
:103AC0005204C7010E94460F6CEA71E0C7010E94D0
:103AD000A40F44E050E0B70188EC95E00E94520446
:103AE000C7010E94460F912CE2CC321708F0DECCC1
:103AF0000E940B04F801EE0FFF1FE659FA4FD08227
:103B0000000F111FF801E559FA4FD501D5968C9198
:103B10008083CCCC89E194E00E94F60289E394E0B2
:103B20000E94A60287E494E00E94070387E794E0DE
:103B30000E94E50287E894E00E94000C88EB95E083
:103B40000E94B60288EC95E00C9466020F931F93D6
:103B5000CF93DF9300D000D000D0CDB7DEB7E9E23D
:103B6000F3E01382128288EE93E0A0E0B0E0848359
:103B70009583A683B7838EE791E09183808385EC5C
:103B800090E09587848784EC90E09787868780EC27
:103B900090E0918B808B81EC90E0938B828B82EC18
:103BA00090E0958B848B86EC90E0978B868B118EC2
:103BB000128E138E148EE6ECF3E0168217821086B6
:103BC0001186128613861486158616861786108A25
:103BD000118A128A138A148A158AECE0F4E08FEFB6
:103BE000808312821182148613868FEF9FEFDC018F
:103BF00087839087A187B287E8E2F2E0859194916C
:103C0000EAE3F6E0918380838BE690E093838283FE
:103C100081E084831582168211861086EAE2F2E042
:103C200085919491E0E3F6E0918380838CE690E0C7
:103C30009383828382E084831582168211861086A4
:103C4000ECE2F2E085919491E6E2F6E091838083E4
:103C50008DE690E09383828384E0848315821682CC
:103C60001186108661E872E0CE0101960E94EE1482
:103C70009E012F5F3F4F40E050E063E070E088EC32
:103C800095E00E94C906CE0101960E94460F6AE89F
:103C900072E0CE0101960E94EE1449E050E0BE01B0
:103CA0006F5F7F4F88EB95E00E945208CE0101962E
:103CB0000E94460F68E972E0CE0101960E94EE1460
:103CC0002FE045E0BE016F5F7F4F87E894E00E94E0
:103CD0003F03CE0101960E94460F6FE972E0CE01CC
:103CE00001960E94EE1448E050E0BE016F5F7F4FE6
:103CF00087E794E00E942004CE0101960E94460FBF
:103D00006EEA72E0CE0101960E94EE1446E050E0A9
:103D1000BE016F5F7F4F87E494E00E94DD07CE0114
:103D200001960E94460F6AEB72E0CE0101960E9456
:103D3000EE14AE014F5F5F4F63E070E089E394E003
:103D40000E943D08CE0101960E94460F68EC72E089
:103D5000CE0101960E94EE140BE010E02CE030E062
:103D600042E050E0BE016F5F7F4F89E194E00E9426
:103D70007D07CE0101960E94460F26960FB6F89455
:103D8000DEBF0FBECDBFDF91CF911F910F91089580
:103D9000991B79E004C0991F961708F0961B881F9D
:103DA0007A95C9F78095089597FB072E16F400942D
:103DB00007D077FD09D00E940E1F07FC05D03EF406
:103DC000909581959F4F0895709561957F4F0895C7
:103DD000052E97FB1EF400940E94FF1E57FD07D08E
:103DE0000E948F2507FC03D04EF40C94FF1E5095C3
:103DF0004095309521953F4F4F4F5F4F08959095D7
:103E00008095709561957F4F8F4F9F4F08950E94C9
:103E1000F325B7FF0895821B930B0895AA1BBB1BC4
:103E200051E107C0AA1FBB1FA617B70710F0A61BBA
:103E3000B70B881F991F5A95A9F780959095BC01DB
:103E4000CD010895EE0FFF1F0590F491E02D099428
:103E50005058BB27AA270E94401F0C9445250E945A
:103E6000372538F00E943E2520F039F49F3F19F4A1
:103E700026F40C9434250EF4E095E7FB0C942E25E3
:103E8000E92F0E94562558F3BA1762077307840773
:103E9000950720F079F4A6F50C9478250EF4E095BA
:103EA0000B2EBA2FA02D0B01B90190010C01CA01F4
:103EB000A0011124FF27591B99F0593F50F4503E9F
:103EC00068F11A16F040A22F232F342F4427585F91
:103ED000F3CF469537952795A795F0405395C9F7A9
:103EE0007EF41F16BA0B620B730B840BBAF0915061
:103EF000A1F0FF0FBB1F661F771F881FC2F70EC000
:103F0000BA0F621F731F841F48F4879577956795D2
:103F1000B795F7959E3F08F0B0CF9395880F08F0BE
:103F20009927EE0F9795879508950E949C1F689496
:103F3000B1110C94792508950E945E2588F09F5751
:103F400098F0B92F9927B751B0F0E1F0660F771FBD
:103F5000881F991F1AF0BA95C9F714C0B13091F0B3
:103F60000E947825B1E008950C947825672F782F6A
:103F70008827B85F39F0B93FCCF386957795679578
:103F8000B395D9F73EF490958095709561957F4FE4
:103F90008F4F9F4F08950E940A2508F48FEF0895D0
:103FA000A0E0B0E0E6EDFFE10C94C025EC01009745
:103FB00021F4CB010E94DF20B8C0FC01E60FF71FFF
:103FC0009C0122503109E217F30708F4ACC0D90173
:103FD0000D911C91119706171707B0F005301105C8
:103FE00008F49FC0C80104978617970708F499C082
:103FF00002501109061B170B019311936D937C93CB
:10400000CF010E9474218DC05B01A01AB10A4C013E
:10401000800E911EA0915A06B0915B0640E050E0E0
:10402000E12CF12C109709F44AC0A815B905D1F577
:104030006D907C901197630182E0C80ED11CCA1468
:10404000DB0480F1A3014A195B096A0182E0C80E12
:10405000D11C1296BC9012971396AC91B5E0CB167A
:10406000D10440F0B282A38351834083D9016D9380
:104070007C930AC00E5F1F4FC301800F911FF9018F
:1040800091838083EB2DFA2FE114F10431F0D701F5
:104090001396FC93EE93129744C0F0935B06E09363
:1040A0005A063FC08D919C9111974817590708F403
:1040B000AC017D0112960D90BC91A02DB3CF8091E3
:1040C00058069091590688159905E1F44617570747
:1040D000C8F48091020190910301009741F48DB7DB
:1040E0009EB74091060150910701841B950BE8177C
:1040F000F907C8F4F0935906E0935806F901718363
:1041000060830FC0CB010E94DF207C01009759F033
:10411000A801BE010E949F20CE010E947421C70108
:1041200004C0CE0102C080E090E0CDB7DEB7EEE083
:104130000C94DC2581E090E0F8940C940226FB01BD
:10414000DC0102C001900D9241505040D8F7089513
:10415000DC0101C06D9341505040E0F70895FB0130
:10416000DC018D91019080190110D9F3990B08950C
:10417000FB01DC0101900D920020E1F70895EF9220
:104180000F931F93CF93DF93E80147FD02C034E004
:1041900001C034E1E42F440FFF0BF7FF03C0F1959A
:1041A000E195F109E32E022F2E2FAE010E94572236
:1041B000CE01DF91CF911F910F91EF900895CF9392
:1041C000DF938230910510F482E090E0E0915A068E
:1041D000F0915B0620E030E0C0E0D0E0309711F1D4
:1041E0004081518148175907C0F04817590761F4B9
:1041F00082819381209719F09B838A832BC09093AF
:104200005B0680935A0626C02115310519F0421726
:10421000530718F49A01BE01DF01EF010280F38118
:10422000E02DDCCF2115310509F1281B390B243095
:10423000310590F412968D919C911397611571053B
:1042400021F0FB019383828304C090935B068093EB
:104250005A06FD01329644C0FD01E20FF31F81931F
:104260009193225031092D933C933AC020915806E6
:1042700030915906232B41F420910401309105011E
:104280003093590620935806209102013091030182
:104290002115310541F42DB73EB7409106015091EB
:1042A0000701241B350BE0915806F0915906E217DF
:1042B000F307A0F42E1B3F0B2817390778F0AC0149
:1042C0004E5F5F4F2417350748F04E0F5F1F509326
:1042D0005906409358068193919302C0E0E0F0E0C4
:1042E000CF01DF91CF9108950F931F93CF93DF9369
:1042F000009709F48CC0FC0132971382128200915E
:104300005A0610915B060115110581F42081318157
:10431000820F931F209158063091590628173907AC
:1043200079F5F0935906E093580671C0D80140E042
:1043300050E0AE17BF0750F412962D913C911397A1
:10434000AD012115310509F1D901F3CF9D01DA0144
:104350003383228360817181860F971F82179307B1
:1043600069F4EC0128813981260F371F2E5F3F4FFA
:10437000318320838A819B8193838283452B29F417
:10438000F0935B06E0935A0642C01396FC93EE93BB
:104390001297ED01499159919E01240F351FE217A3
:1043A000F30771F480819181840F951F0296119615
:1043B0009C938E938281938113969C938E931297F4
:1043C000E0E0F0E0D80112968D919C911397009750
:1043D00019F0F8018C01F6CF8D919C9198012E5F18
:1043E0003F4F820F931F209158063091590628178E
:1043F000390769F4309729F410925B0610925A0637
:1044000002C0138212821093590600935806DF915E
:10441000CF911F910F910895FB01DC0105900D9242
:104420000020E1F70895FC0105900020E9F7809550
:1044300090958E0F9F1F08954532510520F442300C
:1044400010F00C942722FB011082CB010895BB27AA
:104450004A3031F4992322F4BDE2909581959F4F23
:104460000C943E224532510520F4423010F00C9459
:104470003D22FB011082CB010895BB27FB0155278C
:10448000AA27880F991FAA1FA41710F0A41B8395B1
:104490005051B9F7A05DAA3308F0A95DA193009728
:1044A00079F7B111B1931192CB010C94BD244F92C5
:1044B0005F926F927F929F92AF92BF92CF92DF9264
:1044C000EF92FF920F931F93CF93DF93CDB7DEB799
:1044D00029970FB6F894DEBF0FBECDBF6A01122F29
:1044E000B02E2BE3201720F0FF24F394F00E02C02F
:1044F000BCE3FB2E0F2D27E0AE014F5F5F4F0E9404
:10450000E523AC018981982F9970913031F0E1FC5D
:1045100006C0E0FE06C090E205C09DE203C09BE23B
:1045200001C090E0EE2DE07183FF3CC0911102C00C
:1045300083E001C084E0811718F4212F281B01C0FB
:1045400020E0E1110BC0F601822F30E2882319F040
:1045500031938150FBCFC20ED11C20E0992329F06A
:10456000D6019C93F60131966F01C6010396E2FED7
:104570000AC03EE4D6013C9341E411964C93119756
:1045800012963C9306C03EE6F601308341E6418335
:104590003283FC01322F40E2332309F442C04193BD
:1045A0003150FACF82FF44C0911102C083E001C0B4
:1045B00084E0811718F4212F281B01C020E0E111AD
:1045C0000BC0F601822F30E2882319F0319381501D
:1045D000FBCFC20ED11C20E0992329F0D6019C9379
:1045E000F60131966F01C6010396E2FE0BC039E475
:1045F000D6013C933EE411963C93119736E4129613
:104600003C9307C039E6F60130833EE6318336E657
:104610003283FC01322F40E2332319F041933150B1
:10462000FBCFFC01E20FF11D10828EEF9FEFB7C0B0
:10463000F1E0911101C0F0E06F2F70E01416150643
:1046400024F49A012F5F3F4F02C021E030E0260F93
:10465000371FBB2029F06B2D70E06F5F7F4F02C0CA
:1046600060E070E0260F371F612F70E026173707D4
:104670001CF4121B212F01C020E03E2D387159F48B
:10468000D601322F60E2332319F06D933150FBCF06
:10469000C20ED11C20E0FF2331F0D6019C93B6015D
:1046A0006F5F7F4F6B01E1110BC0F601922F30E37A
:1046B000992319F031939150FBCFC20ED11C20E009
:1046C0009F2D940F3A81782F7071A72E84FF03C01D
:1046D000313309F49150191624F4993018F098E008
:1046E00001C091E0E42F852F57FF02C0E0E080E099
:1046F0006E2F782FE0E0F0E0AEE29A2E3A01691AD0
:1047000071082A01461A570A0B2D10E011950195E0
:1047100011096F3F8FEF780729F4D6019C92C601EB
:1047200001966C014617570784F0661677066CF4FD
:104730007F01E40CF51CA1E0B0E0AC0FBD1FEA0E58
:10474000FB1ED7011196BC9002C090E3B92E6150B8
:1047500071093196C60101967C016017710724F03A
:10476000D601BC926C01D5CF6417750741F436337E
:1047700020F4353321F4A11002C081E3B82EF601F4
:10478000B082F701822F90E2882319F09193815033
:10479000FBCFF701E20FF11D108280E090E0299637
:1047A0000FB6F894DEBF0FBECDBFDF91CF911F9142
:1047B0000F91FF90EF90DF90CF90BF90AF909F90C0
:1047C0007F906F905F904F900895283008F027E019
:1047D0003327DA01990F311D87FD9160009661053D
:1047E000710539F432602E5F3D9330E32A95E1F78D
:1047F00008959F3F30F080387105610509F03C5FF6
:104800003C5F3D93913008F08068911DDF93CF931A
:104810001F930F93FF92EF92192F987F9695E92F90
:1048200096959695E90FFF27E852FD4F9927332774
:10483000EE24FF24A701E70105900894079428F4CB
:10484000360FE71EF81E491F511D660F771F881F80
:10485000991F0694A1F70590079428F4E70EF81E17
:10486000491F561FC11D770F881F991F661F069489
:10487000A1F70590079428F4F80E491F561FC71F8B
:10488000D11D880F991F661F771F0694A1F7059009
:10489000079420F4490F561FC71FD81F990F661F92
:1048A000771F881F0694A9F784911095177041F01F
:1048B000D695C79557954795F794E7941A95C1F7FC
:1048C000EEE7F2E068941590159135916591959118
:1048D00005907FE27395E118F10A430B560BC90B63
:1048E000D009C0F7E10CF11E431F561FC91FD01D90
:1048F0007EF4703311F48A95E6CFE894015030F0DD
:10490000080F0AF40027021708F4202F2395022F1E
:104910007A3328F079E37D932A95E9F710C07D93E7
:104920002A9589F606949795679537951795179464
:10493000E118F10A430B560BC90BD00998F02395E7
:104940007E9173957A3308F070E37C932013B8F767
:104950007E9170617D9330F0839571E37D9370E378
:104960002A95E1F71124EF90FF900F911F91CF91BD
:10497000DF91992787FD90950895DC01FC01672F51
:1049800071917723E1F7329704C07C916D93708326
:104990006291AE17BF07C8F30895E89409C097FB6A
:1049A0003EF490958095709561957F4F8F4F9F4F06
:1049B0009923A9F0F92F96E9BB279395F69587954A
:1049C00077956795B795F111F8CFFAF4BB0F11F40D
:1049D00060FF1BC06F5F7F4F8F4F9F4F16C08823B4
:1049E00011F096E911C0772321F09EE8872F762FEA
:1049F00005C0662371F096E8862F70E060E02AF02B
:104A00009A95660F771F881FDAF7880F9695879516
:104A100097F90895990F0008550FAA0BE0E8FEEFEB
:104A200016161706E807F907C0F012161306E40772
:104A3000F50798F0621B730B840B950B39F40A266B
:104A400061F0232B242B252B21F408950A2609F449
:104A5000A140A6958FEF811D811D089597F99F674D
:104A600080E870E060E008959FEF80EC08950024F6
:104A70000A941616170618060906089500240A94C3
:104A800012161306140605060895092E0394000C49
:104A900011F4882352F0BB0F40F4BF2B11F460FFD8
:104AA00004C06F5F7F4F8F4F9F4F089557FD905801
:104AB000440F551F59F05F3F71F04795880F97FBE2
:104AC000991F61F09F3F79F087950895121613069C
:104AD0001406551FF2CF4695F1DF08C016161706CB
:104AE0001806991FF1CF8695710561050894089500
:104AF000E894BB2766277727CB0197F90895DB0158
:104B00008F939F930E94B125BF91AF91A29F800D7B
:104B1000911DA39F900DB29F900D11240895A1E2C5
:104B20001A2EAA1BBB1BFD010DC0AA1FBB1FEE1F27
:104B3000FF1FA217B307E407F50720F0A21BB30B72
:104B4000E40BF50B661F771F881F991F1A9469F7EE
:104B500060957095809590959B01AC01BD01CF014A
:104B600008950E94F325A59F900DB49F900DA49FDA
:104B7000800D911D112408952F923F924F925F92C4
:104B80006F927F928F929F92AF92BF92CF92DF925D
:104B9000EF92FF920F931F93CF93DF93CDB7DEB7C2
:104BA000CA1BDB0B0FB6F894DEBF0FBECDBF099456
:104BB0002A88398848885F846E847D848C849B84AD
:104BC000AA84B984C884DF80EE80FD800C811B81BB
:104BD000AA81B981CE0FD11D0FB6F894DEBF0FBEEA
:104BE000CDBFED010895A29FB001B39FC001A39F67
:104BF000700D811D1124911DB29F700D811D112416
:104C0000911D089511E0CDEBD1E004C0FE010E949A
:0E4C1000221F2196CE3BD107C9F7F894FFCFA3
:104C1E00390500005C068000000000002C122C12EA
:104C2E002C12EF01EB01E80100000000790BBC0B28
:104C3E002B09EF01EB0128092D0900000000AE023F
:104C4E00DB02130200000000B602D1021302370687
:104C5E0000000000A602C7020000000007030E03BA
:104C6E00271200000000F602FD02271200000000CD
:104C7E006602BD0200000000E502EC022712C80524
:104C8E0000000000000C110C1302000000008B113C
:104C9E00C314541132114611D211000000002E120D
:104CAE0036122712564D4450565F317C315F564DA9
:104CBE004450560D0A00536574204C4544205661ED
:104CCE006C7565733A200046726565204D656D6F93
:104CDE0072793A2000456E636F64657220506F736F
:104CEE006974696F6E3A2000456E636F6465722059
:104CFE0072657475726E3A2000636F6C6F723A2033
:104D0E000064756E6B656C0061756668656C6C65CC
:104D1E006E0068656C6C00616264756E6B656C6EBE
:104D2E00006148656C6C5F3A20006144756E6B657E
:104D3E006C5F3A20006141756668656C6C656E5FEC
:104D4E003A200061416264756E6B656C6E5F3A204D
:104D5E00003000203A200043616C6C202D20616EE3
:104D6E00616C6F674F7574202D2073657456616C7E
:104D7E007565006572726F72007761726E6900738D
:104D8E00656E736F00646562756700657864656251
:104D9E00004C6F6767696E6731006C696768747382
:104DAE007472697065203100575332383132006D9C
:104DBE006F74696F6E73656E736F72203100646805
:104DCE007473656E736F7220310046617262654E48
:104DDE0061636854656D70005269636874756E67BF
:104DEE0073456E636F646572003A0043616C6C20AC
:104DFE002D205250204C656420416E7465696C20E4
:0C4E0E00006C656461727261793A2000EA
:107800000C94343C0C94513C0C94513C0C94513CE1
:107810000C94513C0C94513C0C94513C0C94513CB4
:107820000C94513C0C94513C0C94513C0C94513CA4
:107830000C94513C0C94513C0C94513C0C94513C94
:107840000C94513C0C94513C0C94513C0C94513C84
:107850000C94513C0C94513C0C94513C0C94513C74
:107860000C94513C0C94513C11241FBECFEFD8E036
:10787000DEBFCDBF11E0A0E0B1E0ECE9FFE702C060
:1078800005900D92A230B107D9F712E0A2E0B1E065
:1078900001C01D92AD30B107E1F70E942D3D0C945F
:1078A000CC3F0C94003C982F959595959595959582
:1078B000905D8F708A307CF0282F295A8091C0000B
:1078C00085FFFCCF9093C6008091C00085FFFCCF60
:1078D0002093C6000895282F205DF0CF982F809127
:1078E000C00085FFFCCF9093C6000895EF92FF92F1
:1078F0000F931F93EE24FF2487018091C00087FD22
:1079000017C00894E11CF11C011D111D81E4E8164B
:1079100082E4F8068FE0080780E0180770F3E09132
:107920000401F091050109958091C00087FFE9CF1E
:107930008091C6001F910F91FF90EF9008950E94D3
:10794000763C982F8091C00085FFFCCF9093C600B5
:1079500091362CF490330CF09053892F089597555D
:10796000892F08951F930E949F3C182F0E949F3CCF
:107970001295107F810F1F9108951F93182F882350
:1079800021F00E94763C1150E1F71F9108951F935A
:10799000182F0E94763C803249F0809103018F5F5E
:1079A000809303018530C1F01F9108958091C0003C
:1079B00085FFFCCF84E18093C6008091C00085FFE5
:1079C000FCCF1093C6008091C00085FFFCCF80E102
:1079D0008093C6001F910895E0910401F091050184
:1079E00009951F9108950E94763C803241F0809164
:1079F00003018F5F80930301853081F008958091AA
:107A0000C00085FFFCCF84E18093C6008091C00058
:107A100085FFFCCF80E18093C6000895E0910401CA
:107A2000F09105010995089540E951E08823A1F0FE
:107A30002D9A28EE33E0FA013197F1F721503040CA
:107A4000D1F72D9828EE33E0FA013197F1F7215064
:107A50003040D1F7815061F708953F924F925F9285
:107A60006F927F928F929F92AF92BF92CF92DF924E
:107A7000EF92FF920F931F93CF93DF93000080E16B
:107A80008093C4001092C50088E18093C10086E015
:107A90008093C2005098589A259A81E00E94143D24
:107AA00024E1F22E9EE1E92E85E9D82E0FE0C02ECA
:107AB00010E1B12EAA24A394B1E49B2EA6E58A2E50
:107AC000F2E57F2EE0E26E2E79E4572E63E5462E36
:107AD00050E5352E0E94763C8033B1F18133B9F107
:107AE000803409F46FC0813409F476C0823409F41B
:107AF00085C0853409F488C0803531F1823521F1A3
:107B0000813511F1853509F485C0863509F48DC0BC
:107B1000843609F496C0843709F403C1853709F423
:107B200072C1863709F466C0809103018F5F80932C
:107B30000301853079F6E0910401F0910501099582
:107B40000E94763C803351F60E94F33CC3CF0E94E2
:107B5000763C803249F78091C00085FFFCCFF092DF
:107B6000C6008091C00085FFFCCF9092C600809136
:107B7000C00085FFFCCF8092C6008091C00085FFC9
:107B8000FCCF7092C6008091C00085FFFCCF609250
:107B9000C6008091C00085FFFCCF5092C600809146
:107BA000C00085FFFCCF4092C6008091C00085FFD9
:107BB000FCCF3092C6008091C00085FFFCCFB09210
:107BC000C60088CF0E94763C863808F4BDCF0E945C
:107BD000763C0E94F33C7ECF0E94763C803809F4CC
:107BE0009CC0813809F40BC1823809F43CC1883942
:107BF00009F48FC080E00E94C73C6CCF84E10E94F2
:107C0000BD3C0E94F33C66CF85E00E94BD3C0E94D3
:107C1000F33C60CF0E94763C809306010E94763C44
:107C2000809307010E94F33C55CF0E94763C80333D
:107C300009F41DC183E00E94BD3C80E00E94C73C66
:107C400049CF0E94763C809309020E94763C809343
:107C5000080280910C028E7F80930C020E94763C79
:107C6000853409F415C18091080290910902892B8D
:107C700089F000E010E00E94763CF801E85FFE4FDA
:107C800080830F5F1F4F80910802909109020817AF
:107C9000190788F30E94763C803209F045CF809125
:107CA0000C0280FF01C16091060170910701660F0F
:107CB000771F7093070160930601A0910802B091AD
:107CC00009021097C9F0E8E0F1E09B01AD014E0F09
:107CD0005F1FF999FECF32BD21BD819180BDFA9A17
:107CE000F99A2F5F3F4FE417F50799F76A0F7B1F4B
:107CF00070930701609306018091C00085FFFCCF5F
:107D0000F092C6008091C00085FFFCCFB092C60003
:107D1000E1CE83E00E94C73CDDCE82E00E94C73CFA
:107D2000D9CE0E94763C809309020E94763C8093D3
:107D300008028091060190910701880F991F909386
:107D40000701809306010E94763C853409F4A6C0A1
:107D500080910C028E7F80930C020E94763C8032D0
:107D600009F0B8CE8091C00085FFFCCFF092C6002C
:107D7000609108027091090261157105B9F140E046
:107D800050E080910C02A82FA170B82FB27011C0E2
:107D9000BB2309F45CC0E0910601F0910701319624
:107DA000F0930701E09306014F5F5F4F46175707B7
:107DB000E8F4AA2369F3F999FECF209106013091E6
:107DC000070132BD21BDF89A90B58091C00085FFB2
:107DD000FCCF9093C6002F5F3F4F30930701209355
:107DE00006014F5F5F4F4617570718F38091C00099
:107DF00085FDE5CE8091C00085FFF8CFE0CE81E023
:107E00000E94C73C67CE0E94763C803209F08CCE3F
:107E10008091C00085FFFCCFF092C6008091C00029
:107E200085FFFCCFE092C6008091C00085FFFCCFAB
:107E3000D092C6008091C00085FFFCCFC092C600E2
:107E40008091C00085FFFCCFB092C60043CEE09188
:107E50000601F091070194918091C00085FFFCCF4D
:107E60009093C6009CCF80E10E94C73C33CE0E9415
:107E7000763C0E94763C182F0E94763C112309F430
:107E800083C0113009F484C08FE00E94C73C22CE29
:107E900080910C02816080930C02E5CE80910C02EF
:107EA000816080930C0259CF809107018823880F4D
:107EB000880B8A2180930B02809106019091070123
:107EC000880F991F90930701809306018091080203
:107ED00080FF09C080910802909109020196909359
:107EE000090280930802F894F999FECF1127E091D6
:107EF0000601F0910701C8E0D1E08091080290915D
:107F00000902103091F40091570001700130D9F34B
:107F100003E000935700E89500915700017001308D
:107F2000D9F301E100935700E89509901990009169
:107F3000570001700130D9F301E000935700E89534
:107F40001395103498F011270091570001700130FB
:107F5000D9F305E000935700E895009157000170B0
:107F60000130D9F301E100935700E895329602976A
:107F700009F0C7CF103011F00296E5CF112480919F
:107F8000C00085FFB9CEBCCE8EE10E94C73CA2CD19
:0C7F900085E90E94C73C9ECDF894FFCF0D
:027F9C00800063
:040000030000780081
:00000001FF